:020000040000FA
:1000000000000420010400000D040000790200003B
:1000100011040000850200008B02000000000000B7
:100020000000000000000000000000003D03000090
:100030001904000000000000D5030000E5030000E3
:100040006DB40000E9C100001F0400001F0400009F
:100050001F0400001F0400001F0400001F04000014
:100060001F0400001F040000ADDC000009C20000F6
:100070001F0400001F0400001F0400008143000053
:100080001F0400001F0400001F0400001F040000E4
:100090001F0400001F0400001F0400001F040000D4
:1000A0001F0400001F0400001F0400001F040000C4
:1000B0001F0400001F0400000000000000000000FA
:1000C0001F0400001F0400001F0400001F040000A4
:1000D0001F0400001F0400001F0400001F04000094
:1000E0001F0400001F0400001F04000000000000A7
:1000F000000000001F040000000000001F040000BA
:1001000000F002F81CF020FE0AA090E8000C8244E7
:100110008344AAF10107DA4501D11CF015FEAFF2C4
:10012000090EBAE80F0013F0010F18BFFB1A43F0D5
:100130000103184738850400588504000A444FF02D
:10014000000C10F8013B13F0070408BF10F8014B36
:100150001D1108BF10F8015B641E05D010F8016B7B
:10016000641E01F8016BF9D113F0080F1EBF10F8DF
:10017000014BAD1C0C1B09D16D1E58BF01F801CB02
:10018000FAD505E014F8016B01F8016B6D1EF9D585
:100190009142D6D37047000000230024002500269A
:1001A000103A28BF78C1FBD8520728BF30C148BFDA
:1001B0000B6070476E2900F08B83702900F071840A
:1001C000662905F00AA3652905F007A3672905F04C
:1001D00004A3612905F003A303681B0A28BF41F0AB
:1001E0008001692900F03883642900F0358375297E
:1001F00000F032836F2900F0FF83782900F03D84FE
:10020000E92901F0CD83E42901F0CA83F52901F041
:10021000C783EF2900F0FC83F82900F03C840368D1
:10022000DB0928BF41F08001632901F0968373291F
:1002300001F09B83E32901F0A683F32901F0AB834E
:10024000002070471FB545F0B6FA9DE8030001F0A5
:10025000AAF801F08BF804000020002144F0F2FF1E
:10026000401C60600020002145F002F8E06001F0D1
:100270006DFD01F05FF81FBD4FF0100308E04FF077
:10028000200305E04FF0300302E04FF0400300BFD1
:10029000EFF308804FF0040172460A4201D0EFF3F9
:1002A00009809C46244B196802680A600431426840
:1002B0000A60043182680A600431C2680A6004314D
:1002C000F0C147460F6004314F460F600431574676
:1002D0000F6004315F460F60043102690A60083123
:1002E00042690A60043182690A600431C2690A60A5
:1002F0000431034620334FF40076324200D00433F9
:1003000075464FF01006354200D148330C46103C7C
:100310002360EFF309820A600431EFF308820A6078
:10032000043172460A600431EFF314820A606046B9
:1003300001493AF0BDFBFEE7487204001EF0040FCD
:100340000CBFEFF30880EFF30980816911F8021CFC
:1003500091BB01B590E80F10E047BDE800508CE874
:100360000300244B93E80600914208BF704741B94F
:100370001EF0100F10D12049086820F0010008601D
:100380000AE02CE9F00F1EF0100F08BF2CED108AC8
:10039000C1F838C081F822E01A6092F82210906B00
:1003A00061F0FF0E1EF0100F08BFB0EC108AB0E82D
:1003B000F00F80F309887047104A13689942FAD801
:1003C00001B552F821C00FC8E047BDE80050CCF895
:1003D0000000704701B53DF023F9BDE80140EFF39F
:1003E000098CBEE701B53DF091FBBDE80140EFF39C
:1003F000098CB6E77803002034EF00E06072040057
:10040000074880470748804707480047FEE7FEE760
:10041000FEE7FEE7FEE7FEE7FEE7FEE7FEE7FEE7B4
:10042000C5DA00006DC00300010100007047000044
:1004300010B500F09BFF001D10BD00BF094E040069
:100440001CF0AABC0844401E491E8843704708217E
:10045000001DF7E72DE9F04117460E460446FFF769
:10046000F6FFA042054633D9002F1CBF06F10C0051
:100470001CF0E8FC30467468F4B12168A94217D337
:1004800005F1080291423CBF6168416007D3626890
:1004900061194A602268521B0A6041602560002F82
:1004A0001CBF06F10C001CF04DFD201DBDE8F081C5
:1004B00020466468002CE0D12946304600F05FFFFA
:1004C0000028D7D1002F1CBF06F10C001CF03AFD0C
:1004D0000020BDE8F08110B5044600F042FF01683D
:1004E0002046BDE810400122B4E770B516460D461F
:1004F000041F002808BF70BD002E1CBF05F10C00B2
:100500001CF0A0FC2B465868002818BFA04238BF3A
:100510000346F8D31968CA18A24218BF5C6003D119
:1005200022681C461144196021680A19824218BFCA
:10053000606004D142686260006808442060002E58
:100540001CBF05F10C001CF0FDFC70BD10B504468D
:1005500000F007FF01682046BDE810400122C4E713
:100560000844401E491E884370470821001DF7E7D4
:100570002DE9F0410F468046041F00F0F2FE0668A8
:1005800007B3B8F1000F384622D0FFF7EEFFB842AC
:1005900005463CBF0020BDE8F08106F10C001CF0D0
:1005A00051FC2268AA4238BF314615D3511B082995
:1005B00031D36019002240F8041B31462560FFF753
:1005C00094FF28E04046FFF7C1FF0020BDE8F0811E
:1005D000BDE8F041FFF77FBF4868002818BFA04280
:1005E00038BF0146F8D3131983421BD103681A445C
:1005F000954217D8531B082B0AD3436862195360DE
:10060000236800681844401B106025604A6002E0BF
:1006100022604068486006F10C001CF093FC201D2D
:10062000BDE8F081002231463846FFF713FF050090
:100630000AD041462068021F284600F06EFD0022C5
:100640003146201DFFF751FF06F10C001CF07AFC2B
:100650002846BDE8F08153EA020C00F069802DE9DC
:10066000F04B4FF00006002B1FBFB3FA83F503FADF
:1006700005F424FA05F65E4012BF1643B2FA82F57D
:1006800002FA05F4C5F120051EBF22FA05FC44EA72
:100690000C04203556EA044C4FEA144418BF641C7D
:1006A0004FF000084FF00009904271EB030C39D372
:1006B000002919BFB1FA81F701FA07F6B0FA80F7FD
:1006C00000FA07F6C7F120071EBF20FA07FC46EA2A
:1006D0000C062037B6FBF4FCA7EB0507103F07F02C
:1006E0001F0BCBF120062CFA06F60CFA0BFB44BFCD
:1006F000B3460026202FA4BF5E464FF0000B5BEAF6
:10070000060C08BF4FF0010B19EB0B0948EB06086C
:10071000ABFB027C06FB02CC0BFB03CCC01B71EBDA
:100720000C01C1E70B46024641464846BDE8F08B46
:1007300013B5084318BF4FF0FF300146AFF30080F8
:10074000BDE81C40704700007CB51D4616460C00F5
:10075000009001D02044401E074B7B442A46694646
:100760000190304601F0CFF805461CB100206946E3
:1007700001F0DCF828467CBDD91100000FB4044913
:1007800010B503AA029801F01DFE10BC5DF814FB21
:10079000C404002070B5044685690068C10601D50F
:1007A000302600E02026C00707D070BDD4E9012123
:1007B00030469047206A401C20626D1EF6D570BD01
:1007C00070B5044685690078C00707D170BDD4E9CB
:1007D000012120209047206A401C20626D1EF6D522
:1007E00070BD09684A0501D540B27047C905FCD5FE
:1007F00000B2704709684A0501D5C0B27047C90503
:10080000FCD580B2704770B50C460546012A05D06C
:100810002878800600D5EA69002302E0012305E07C
:100820005B1C934202D2E05C0028F9D1A869E6186B
:10083000C01AA861286A184428622846FFF7AAFF50
:1008400004E0D5E9012114F8010B9047B442F8D334
:100850002846FFF7B5FF70BD2DE9F041064600249C
:1008600010687529314616A510D0FFF7BAFF002889
:1008700002DA404213A507E031688A0701D512A5C4
:1008800002E0490704D511A5012401E0FFF7B2FFFA
:1008900000210A2206F1240709E0B0FBF2FCB0FBBC
:1008A000F2F302FB1C00303078541846491C002833
:1008B000F3D123462A463046BDE8F04100F0B6BDEC
:1008C000000000002D0000002B00000020000000B0
:1008D00011680268006A530501D508700AE0D30563
:1008E00001D5088006E0130603D5C217C1E900024E
:1008F00000E00860012070472DE9FF5F15468A4639
:100900000446DFF8AC80F8440027D8E900103E46E2
:10091000CDE9001010E03AF816106A4602A801F07E
:10092000F9FA411C07D02178890603D5E269391804
:1009300091420DD80744761C2078800602D5E069E4
:10094000B84205DDAE42E6DB3AF816000028E2D1F7
:10095000A069C01BA0612046FFF71CFFD8E900106A
:10096000CDE90010002017E03AF818106A4602A8F6
:1009700001F0D0FAB0F1FF3F81460BD000250DF118
:10098000080B05E0D4E901211BF8050090476D1C18
:100990004D45F7D308F10100B0428046E4DB206A00
:1009A000384420622046FFF70BFFBDE8FF9F0000A0
:1009B000DA4E040030B4002100F1240408E002F013
:1009C0000705D208303542EA4372DB086554491CFA
:1009D00052EA0305F3D10468002310A2250708D5C5
:1009E00004F020040C4304D0C46901230CA2641E4B
:1009F000C46130BC00F01ABD10B504462146106831
:100A0000FFF7F8FE02462046BDE810400023D1E77C
:100A1000D21D22F00701D1E90023CBE7000000003E
:100A200030000000F0B40D460188090502D5214CC4
:100A30007C4402E01F4C7C440E34002100F124066B
:100A400008E002F00F071209E75D42EA03721B0992
:100A50007754491C52EA0307F3D1027800231207A6
:100A600004D5702D06D009B1022311342246F0BC02
:100A700000F0DCBC01231034F8E770B504460D46E5
:100A800021461068FFF7B6FE024629462046BDE81B
:100A900070400023C6E7D21D22F00703D3E90023EC
:100AA000C0E70368126843F0200303600823C361B2
:100AB0000023B7E7B84D04002DE9F05F89460446EE
:100AC0004FF0000ADFF874B1FB44C0F820A02046C4
:100AD000E1688847002874D0252806D0D4E9012190
:100AE0009047206A401C2062F1E700265F462046BE
:100AF000E16888472028054607DB312D05D27819A3
:100B000010F8200C08B10643F1E7B00701D526F034
:100B10000406C4F81CA00027C4F818A02A2D09D088
:100B2000284644F07BFB38B304EB8708303DC8F817
:100B3000185019E059F8041B204604EB8702916114
:100B4000E1688847012F054618D1E069002820DABE
:100B500026F020061DE0D8F8180000EB800005EB19
:100B600040003038C8F818002046E168884705463C
:100B700044F054FB0028EED1012F0AD02E2D08D1CD
:100B80002046E16888477F1C0546022F46F0200674
:100B9000C4DBA069002803DA404246F00106A061E8
:100BA000F00701D026F010066C2D0BD0682D09D06F
:100BB0004C2D39D06A2D35D0742D35D07A2D33D0C7
:100BC00016E038E0E1682F4620468847B8420546DF
:100BD00009D16C2F26D04FF48060E168064320468F
:100BE0008847054604E06C2F1AD04FF48070064306
:100BF0000DB3A5F14100192802D8203546F400664E
:100C00004A462946204626604E46FFF7D3FA80B171
:100C100001280BD0F61D26F0070000F1080956E761
:100C20004020E4E78020D8E70020D6E706F1040959
:100C30004DE7284652E7206ABDE8F09F484D040082
:100C40002DE9F041044616460D464769007B8007B2
:100C50002ED038461CF0A0F950BB3EB3012E02D076
:100C6000022E25D104E0204600F066F805441DE080
:100C700038461CF07DF9E168002841F01001E16080
:100C800005DA204600F0B6FF0120BDE8F081C90377
:100C90000BD56268E16A914200D81146A2691144FD
:100CA0002269891A814200DD08460544002D01DAD7
:100CB0000220EAE7E16A6068E268814206D29103B5
:100CC000E06203D522F4003141F01002A66900274A
:100CD000AE4213DCE16A814201D90B4600E00346D3
:100CE00003EB060C2369ACEB030CAC4506DD81423B
:100CF00001D98C4600E084469C4505D1A760276059
:100D000042F02000A5620DE0AD1BE669AE1B8142FA
:100D1000A66000D90846C01A281A206058196060D9
:100D200022F0200003490840E060002084F8487069
:100D3000ABE70000BFCFD7FF10B50146C2689007F0
:100D400003D0900607D5886A0AE0FFF779FB0121F6
:100D50000160881E10BD8B69486818440B69C01A71
:100D600091F848301BB191F84910401A10BD110399
:100D7000FCD50028FADD401E10BD0000014900F03E
:100D800029B80000C40400202DE9F04704464FF0C4
:100D900000094FF0FF37C568D4E90486A80707D0DB
:100DA000204600F05BFF30461CF0DCF8002802DA39
:100DB0003846BDE8F087280502D54046FFF7C6FB58
:100DC0004C21204600F04AFA206D20F001002065F9
:100DD0004846EEE770B50C46064601F14C0528463C
:100DE0001CF030F82146304644F01FFA04462846ED
:100DF0001CF0A8F8204670BD2DE9F047164688463D
:100E0000070010D006F14C0081461CF01BF830465C
:100E1000FFF7BAFF18F8010B61280DD0722805D032
:100E2000772841D105E00020BDE8F08701250024A6
:100E300005E00225042402E0082448F2020518F81F
:100E4000010B2B2806D0622809D018F8010C742851
:100E50000AD00BE045F0030544F00204EFE745F04B
:100E6000040544F00104EAE744F010043846214642
:100E70001CF096F8411C17D00021316171604FF4CD
:100E80000071F560F1617061200704D530460222DF
:100E90000021FFF7D5FE306D40F001003065484677
:100EA0001CF050F83046BFE70026F8E72DE9F04186
:100EB00015460E460746214C20461BF0C3FF2A4626
:100EC00031463846FFF798FF054620461CF03AF8B1
:100ED0002846BDE8F0812DE9F0410E468046174DC9
:100EE00028461BF0AFFF164C206DC10704D0410807
:100EF00004D020F00104F7E7224612E05420FFF767
:100F0000EAFA070017D0206D47F001010843542189
:100F10002065384600F0A2F907F14C001BF0C0FF35
:100F20003A4631464046FFF767FF044628461CF024
:100F300009F82046CDE70024F8E700000C02002065
:100F40007004002010B5002001F008F8AFF3008015
:100F5000BDE8104001201CF009B830B503461D78EB
:100F60003DB10A4612F8014B1CB1AC42FAD15B1CF0
:100F7000F5E7181A30BD40EA010310B59B070FD101
:100F8000042A0DD310C808C9121F9C42F8D020BAF9
:100F900019BA884201D9012010BD4FF0FF3010BDB1
:100FA0001AB1D30703D0521C07E0002010BD10F87F
:100FB000013B11F8014B1B1B07D110F8013B11F845
:100FC000014B1B1B01D1921EF1D1184610BD10B56B
:100FD000431C02E010F8011B71B18107FAD14FF0F8
:100FE000013202C88C1A8C4314EAC211F9D0C01A1B
:100FF0000A0603D0C01E10BDC01A10BD0A0401D0DD
:10100000801E10BD0902FCD0401E10BD032A40F214
:10101000308010F0030C00F0158011F8013BBCF19A
:10102000020F624498BF11F801CB00F8013B38BFB2
:1010300011F8013BA2F1040298BF00F801CB38BFC0
:1010400000F8013B11F0030300F06780083AC0F09C
:10105000088051F8043B083A51F804CBA0E8081086
:10106000F5E7121D5CBF51F8043B40F8043BAFF3B9
:101070000080D20724BF11F8013B11F801CB48BF13
:1010800011F8012B24BF00F8013B00F801CB48BF49
:1010900000F8012B7047431A28BF9A427FF6B6AF7B
:1010A00010441144032A40F2268010F0030F1EBFA3
:1010B00011F8013D521E00F8013D10F0030F7FF4BE
:1010C000F6AF11F0030300F06D80083AC0F00B801A
:1010D00051F8043D083A51F804CD40F8043D40F879
:1010E00004CDFFF7F3BF121D5CBF51F8043D40F87B
:1010F000043DAFF30080D20724BF11F8013D11F881
:1011000001CD48BF11F8012C24BF00F8013D00F8C3
:1011100001CD48BF00F8012C704710B5203AC0F04F
:101120000B80B1E81850A0E81850B1E81850A0E8BA
:101130001850203ABFF4F5AF5FEA027C24BFB1E853
:101140001850A0E8185044BF18C918C0BDE8104096
:101150005FEA827C24BF51F8043B40F8043B08BF9F
:101160007047D20728BF31F8023B48BF11F8012B66
:1011700028BF20F8023B48BF00F8012B7047431AF4
:1011800028BF9A427FF6C9AF1044114410F0030FF4
:101190001EBF11F8013D521E00F8013D10F0030F73
:1011A0007FF4F6AF103AC0F00A8010B531E918505C
:1011B00020E91850103ABFF4F9AFBDE810405307CA
:1011C00024BF31E9081020E9081044BF51F8043D5C
:1011D00040F8043D12F0030F08BF7047D20728BF44
:1011E00031F8023D48BF11F8012C28BF20F8023D1C
:1011F00048BF00F8012C704702F0FF0343EA0322C6
:1012000042EA024200F00AB802F0FF0343EA032276
:1012100042EA024200F024B84FF000020429C0F074
:10122000128010F0030C00F01B80CCF1040CBCF118
:10123000020F18BF00F8012BA8BF20F8022BA1EB6A
:101240000C0100F00DB85FEAC17C24BF00F8012B4F
:1012500000F8012B48BF00F8012B70474FF0000247
:1012600000B5134694469646203922BFA0E80C509C
:10127000A0E80C50B1F12001BFF4F7AF090728BF77
:10128000A0E80C5048BF0CC05DF804EB890028BFF3
:1012900040F8042B08BF704748BF20F8022B11F01C
:1012A000804F18BF00F8012B7047000000000000BD
:1012B00030B44FF0013C50F8042B51F8043BCCFA09
:1012C00052F4D51A20D1FCB950F8042B51F8043B44
:1012D000CCFA52F4D51A17D1B4B950F8042B51F8FE
:1012E000043BCCFA52F4D51A0ED16CB950F8042B49
:1012F00051F8043BCCFA52F4D51A05D1002CDAD0BF
:1013000030BC4FF00000704729BAB1FA81F111F0FA
:101310001801D1F120008440F2D1CA40CB4012F034
:10132000FF0213F0FF0330BCD01A704770477047BC
:101330007047000070B5064C7C44064D7D4404E0C7
:101340002046016808448047241DAC42F8D170BD96
:101350007C74040084740400004870476C0500200D
:10136000704710B5FFF7F8FF083010BD10B5FFF754
:10137000F3FF203010BD704770477047704738B595
:1013800004460A4600206946AFF30080002808BFE3
:1013900038BD02460099204600F0EEFD012038BD20
:1013A000012001F0E6B8F8B5AFF300800546002053
:1013B0000C46102000BF0646A819A0420DD932469F
:1013C00069460020AFF30080070008BF01F0D1F8A4
:1013D0000098A04218BF0546C419FFF7C2FF056078
:1013E0000746F01D20F007004619284600F00AF8CD
:1013F000B44208BFF8BDA21B31463868BDE8F840CA
:1014000000F0BABD00210160C0E901100C301BF0F2
:1014100047BD1020704710B5FFF712F8006810BDE7
:1014200010B50446FFF70CF8046010BD2DE9F04735
:101430000D4699469246044600F124080168880644
:1014400004D5E06921F01001216000E00120A842EC
:1014500001DD471B00E00027A1697A1902EB0900B2
:10146000081AA0612078C00602D42046FFF792F93E
:10147000002608E0D4E901211AF806009047206A06
:10148000401C761C20624E45F4DB2078C0060AD54D
:101490002046FFF77FF906E0D4E90121302090478C
:1014A000206A401C2062381EA7F10107F4DC07E027
:1014B000D4E9012118F805009047206A401C2062F9
:1014C000281EA5F10105F3DC2046FFF779F9207805
:1014D000000602D50220BDE8F0870120FBE72DE9D8
:1014E000FF4F0C461E464FF0FF378BB0D2E900018C
:1014F000DDF860800A908A46C1F30A5505B93D4679
:10150000002108464FF00000BAF1000F00F440003F
:1015100005DA00EB80004FF4400101EA50004FEA89
:101520009059B9F1010F00DDB9460A9850EA4A0016
:101530000ED044F61050A5F2FF3545432F14B8F1F4
:10154000000F1ED07542291E1EDDC9F100021CE0ED
:10155000B8F1010F4FF0000001D0302103E0F24359
:1015600005E02154401CB042FBDB30460022002144
:1015700021540B99C1F80880C1E900200FB0BDE8E3
:10158000F08FBD1B6D1CDEE74A4600DA694206A8F3
:1015900000F038FF06AB93E8070003AB83E80700D1
:1015A00050460A9943F08EF98DE80700A0F50050E7
:1015B0001F3800900398002D0ADD42F21F014A46B1
:1015C0000844002303A90390684643F0F7FB09E0B1
:1015D000A0F500504A461F38002303A9039068462F
:1015E00043F001FC8DE807000004000C03D04FF02D
:1015F000FF30410800E01046B8F1000F03D0002290
:10160000009215461EE0751E05D400F0D7FC30325E
:1016100062556D1EF9D5B3460122084302D000225F
:101620007F1C04E02078302801D100227F1E002A90
:10163000099784D01DE0112D07DA00F0BFFC30328D
:1016400062556D1C50EA0102F5D1084302D00098A2
:10165000C8B10EE00021681E05E0235C625C6354A3
:101660002254401E491C8142F7DBAB46A81B401E9A
:101670000990002004F80B000B98099AC0F8088024
:10168000C0E9002B7AE711264FF0000857E72DE953
:10169000F04F88460446D21D22F0070191B0D1E9EF
:1016A0000001CDE90A0143F0D5FC02460B98C00FBA
:1016B00001D02D2007E02068810701D52B2002E012
:1016C000202101EAC000032A099001D0072A05DB86
:1016D00003464146204600F035FE0BE120788006A7
:1016E00001D5E06900E00620B8F1650F814606D01B
:1016F000B8F1660F18D0B8F1670F70D131E0002053
:10170000B9F1110F009001DB112301E009F1010390
:101710000AAA01A90CA8FFF7E2FEDDE90C70002679
:1017200009F10105834647E001204B4600904FF048
:1017300000470AAA01A90CA8FFF7D1FEDDE90DB008
:101740000C995D46002610B909F101000D18B9EB9E
:10175000050003D4C0F1FF3609F10105A5EB09002E
:101760002BE0B9F1010F01DA4FF001090020B9F1C6
:10177000110F0090484601DD112300E003460AAA3C
:1017800001A90CA8FFF7ABFEDDE90C704D46002661
:101790008346207800070AD4AB4500DA5D4601A8ED
:1017A000012D04DD411911F8011C302907D04F45E6
:1017B00002DA17F1040F04DA012082460FE06D1EF1
:1017C000EEE7002F02DCED1B3E4403E0781CA8424C
:1017D00000DD7D1CB81B00F1010A4FF000472078A6
:1017E000000703D4AA4501DB4FF0FF3A0021B7F10F
:1017F000004F0DF143088DF8431024D002202B2315
:10180000002F01DA7F422D230A21021EA0F10100E0
:1018100000DC5FB197FBF1FC97FBF1F201FB1C7C54
:1018200017460CF1300C08F801CDEEE7A8F10100E5
:1018300003702188090501D5452100E06521A0F14B
:10184000010800F8011C09980FA9A1EB0807FF1D6A
:1018500000B10120411901EBEA70A1693844081A6E
:10186000401EA0612078C00602D42046FEF792FFF9
:10187000099828B1D4E901219047206A401C2062D0
:101880002078C00622D52046FEF784FF1EE0002EF9
:1018900004DBB34502DD01A8805D00E03020D4E91F
:1018A00001219047206A401C2062761CAAF10100A9
:1018B0005FEA000A0AD1FFF759FDC0680168405C81
:1018C000D4E901219047206A401C2062281EA5F11E
:1018D0000105DCDC07E0D4E9012118F8010B904791
:1018E000206A401C2062381EA7F10107F3DC204665
:1018F000FEF766FF032011B041E6000001694A1CB3
:1019000002610878704700B58FB0CDE90131002140
:10191000059105497944CDE9031011466846FFF762
:10192000CBF80FB000BD0000E5FFFFFF0A6802F82A
:10193000010B0A607047D1E900239A4202D2531C7E
:101940000B601070704710B5436913B1AFF300809E
:1019500001E0FEF758FF012010BD127800F12401CC
:101960000A7000224A700122EDE711684FF0FF3241
:10197000E9E710B5436913B1AFF3008001E0FEF76A
:10198000BBFF012010BD128800F1240182840022D7
:10199000C2840122EDE711684FF0FF32E9E7000051
:1019A0002DE9F0418046D21D22F007020025D2E940
:1019B0000002F52915A614D0011E72F1000106DA05
:1019C0000023D0EB030063EB020211A608E0D8F875
:1019D00000108B0701D50FA602E0490701D50EA61E
:1019E00001251146002408F1240704E000F0E6FA7E
:1019F00030323A55641C50EA0102F7D12B46324688
:101A000021464046BDE8F041FFF710BD0000000050
:101A10002D0000002B000000200000002DE9F04701
:101A200005460C46C86820F4201040F48000C860C9
:101A3000800602D5084600F034F9E06841F28201E0
:101A40004FF0FF390140022903D0204600F0D2F8C0
:101A5000B5E000F42041B1F5004F0FD1C00306D529
:101A60006168E06A884200D80846606006E0206944
:101A7000E062606060691BF07BFAA061A0680022F0
:101A8000EEB200280DDAE1688B050AD4C043A060ED
:101A900041F490302260E0606068411C6160067033
:101AA000A5E0E0689046226040F40050E0602069C4
:101AB00068BB60691BF070FA012704F12405A0B12E
:101AC000A08910F4407F08D0E069FEF704FD206192
:101AD00018B1E06840F4006016E0E7612561E06855
:101AE00020F4407040F480600EE0E069FEF7F3FC03
:101AF00000282061F1D0E06840F4006010F4407FDD
:101B0000E06002D140F48070E06020696060E068CD
:101B100025696FF0010AC1051FD56168E06A884236
:101B200000D80846411B04D02246284600F06CF835
:101B3000F0BBE068010203D5E562C4E9015854E056
:101B4000691CE1626160E16940F48030491EC4E9CA
:101B5000021030462E70BDE8F087010202D500F475
:101B600080320AE06068411C61600670E0680A2EFD
:101B700040F48030E06006D00022E16A6068814273
:101B800003D90B4602E00122F7E70346A7895B1B56
:101B90007F0503D4E7699F4200DDE2B1814200D8AE
:101BA0000146E5620F1AC4E90158002B09DD00E087
:101BB00005E022461946284600F026F808B14846B6
:101BC000C9E747B1A069E5626560C01BA061E06834
:101BD00040F01000E060E068000208D56168A0698C
:101BE000E562491B08446560A0615046B3E7304692
:101BF000B1E70000C16821F4001141F08001C1602B
:101C000000218160016070472DE9F047814614464C
:101C10000E464FF0FF383248D5685769054209D063
:101C20003846A1691BF0F2F9002811DB2C48C043AB
:101C30000540E5602B463246494638461BF0ECF934
:101C4000A16920F00042B21A11440028A16103D01A
:101C50002046FFF7CFFF4046BDE8F08770B5044649
:101C60000569C06A6168884200D80846E16821F4C5
:101C70002011E160C90312D5A84208D02246411BB9
:101C80002846FFF7C1FF10B14FF0FF3070BD0020B4
:101C9000E562C4E90150E06820F48030E060002093
:101CA00070BD10B50446C06820F02000E060A16A55
:101CB000A06988420DD02046FFF7D0FFE06820F4ED
:101CC000405040F01000E060A06AA0612069E0622E
:101CD000606044F24001E0688843E06010BD0000AD
:101CE000100002002DE9F04704461E4690460D46BE
:101CF000C7684C3081461BF0A5F8B80714D07802AD
:101D000012D44046B8F5807F09D0B0F5007F06D0E8
:101D1000B8F5806F08D1012604F1240506E0701E95
:101D20006FF07F41884201D3012409E02561E6611B
:101D30006560E06820F4706040EA0800E06000241C
:101D400048461BF0FFF82046BDE8F08710B565480F
:101D50005421FFF783FA64485421FFF77FFA634860
:101D60005421FFF77BFA62485E49624A624B016088
:101D70005D4810605D4A1A60431C0B65511C01658B
:101D80000120106557484C301BF08AF856484C30FB
:101D90001BF086F855484C301BF082F857481BF072
:101DA0007FF858484F4A56A17844FFF77FF820B98A
:101DB000544878440A3800F0D5FB54484A4A52A1A6
:101DC0007844FFF773F820B9504878440A3800F097
:101DD000C9FB4F48454A4CA17844FFF767F820B942
:101DE0004B4878440A3800F0BDFB40233D48DC00F6
:101DF00000212246FFF776FF20B14248784454384C
:101E000000F0B0FB3848224640230021FFF76AFF6C
:101E100020B13E487844543800F0A4FB33482246B1
:101E200010230021FFF75EFF002806D038487844D1
:101E3000BDE81040563800F095BB10BD2B482DE989
:101E4000F041006D2D4E20F0010430461AF0FAFFEB
:101E5000244D4C3528461AF0F5FF2248FEF794FF32
:101E600028461BF06FF828461AF0FAFF1E4D4C3535
:101E700028461AF0E7FF1C48FEF786FF28461BF0AD
:101E800061F828461AF0ECFF184D4C3528461AF038
:101E9000D9FF1648FEF778FF28461BF053F828466E
:101EA0001AF0DEFF14E0206D20F0010504F14C0073
:101EB00007461AF0C7FF2046FEF766FF38461BF0BC
:101EC00041F838461AF0CCFF2046FEF73FFB2C467F
:101ED000002CE8D130461BF035F808481AF0C0FF56
:101EE000BDE8F08170040020C40400201805002023
:101EF0000002002004020020080200200C02002042
:101F00007200000018440400770000000744040039
:101F1000E04304002DE9F04116460C460546FEF765
:101F200087FA036893F80101012807D0FF2C12D823
:101F3000185D80B101202C70BDE8F081D3F8070155
:101F40003246214603F20713C7182846BC46BDE8AF
:101F5000F041002360474FF0FF30EDE710B500F08F
:101F6000E9FABDE8104000F0DFBA801A0844401ECC
:101F7000491E88431044704770B5144605468C4688
:101F80004368002B18BF634538BF1846F8D3026872
:101F90001044604508D06646604604220821FFF7D9
:101FA000E4FF811B8446641A2946CCF80040BDE852
:101FB000704000220CF10400FEF797BA30B5B0F182
:101FC0000A0271F100034FEA900E4EEA817EB0EBF7
:101FD0000E0061EB91014FEA101E4EEA017E10EBFC
:101FE0000E0041EB11114FEA102E4EEA016E10EB7C
:101FF0000E0041EB11214FEA104E4EEA014E10EB5C
:102000000E0041EB1141401841F100014FEAD000B0
:1020100040EA41704FEAD1014FEA810444EA9074EA
:1020200010EB800544EB01046D1944EB0404521BD2
:10203000A3414FF0000348BF0A3200D530BD401C19
:1020400041F1000130BD00002DE9F04F04460D467E
:10205000D21D22F0070089B0D0E9009748463946E2
:1020600042F0F8FF0246F80F01D02D2307E0206868
:10207000810701D52B2302E0202101EAC0038DF85E
:1020800020300BB1012000E00020032A824601D05D
:10209000072A04DB2946204600F054F93FE1207866
:1020A000800601D40D2500E0E569C7F30A560D2D21
:1020B00049DA00214FEA175B08464FF00000002F75
:1020C00000F4400007DA00EB80004FF4400100EB21
:1020D000D07001EA60008115012901DD4FF0FF3168
:1020E00000224FEA850CBCF1180F06D31346ACF161
:1020F00018004FF08052C24003E04FF4801323FADF
:102100000CF30CF10C0CBCF1200F04D3ACF1200C3F
:1021100009FA0CF001E007FA0CF000294FF0004832
:1021200001DD18B90FE00ED140450CD319EB0209BF
:102130005F4121B9404502D19F4329EA0209BBEB27
:10214000175F00D0761C2088000502D57B487844B4
:1021500002E07A487844193808AA302302F80A3095
:10216000037C0AF10101002E0AF1020A53546A4667
:1021700002DC4FF0300101E04FF031014FF0010877
:102180008DF8001002D0A6F2FF3603E059EA4701AD
:1021900000D06B4E002D02DC2178090704D54FF0EA
:1021A00002082E218DF80110C44600210BE0C7F370
:1021B00003433F01C35C491C6D1E02F8083005292A
:1021C00008F1010801DA002DF1DC00210CE000EB40
:1021D0001973491C1B786D1E082902F808304FEA54
:1021E000091908F1010801DA002DF0DC21688B06DD
:1021F00002D516E0A8F10108E04505DD02EB080371
:1022000013F8013C302BF5D0B8F1000F09DD02EBDB
:10221000080313F8013C2E2B03D1090701D4A8F1C0
:102220000108002D05DD3E2102F808106D1E08F1A1
:102230000108407C002E02F8080008F1010804DAC9
:102240002D20764202F8080002E02B2002F8080058
:102250000A214FF47A70864208F101080BDB96FBE5
:10226000F0F3303302F8083096FBF0F308F1010880
:1022700000FB136601E0642E0CDB642096FBF0F398
:10228000303302F8083096FBF0F308F1010800FB48
:10229000136601E00A2E06DB96FBF1F0303002F8FF
:1022A000080008F1010896FBF1F001FB10603030E6
:1022B00002F80800A16908F1010808EB050202EB29
:1022C0000A00081AA0612078C00602D42046FEF752
:1022D00061FA216A08AE01EB0A00206204E0D4E949
:1022E000012116F8010B9047BAF1010AF7D22078C4
:1022F000C00602D52046FEF74DFA6E4609E016F8F4
:10230000010B3E280FD0D4E901219047206A401CE0
:102310002062B8F10108F2D22046FEF751FA09B066
:102320000320BDE8F08F206A2844206203E0D4E94E
:102330000121302090476D1EEBD3F8E729370400C8
:1023400002FCFFFF2DE9F0411F4604460326016809
:10235000072A01F4006004DB08B116A505E016A504
:1023600003E008B115A500E015A521F010002060DC
:10237000A069C01EA0610FB1401EA0612046FEF7FB
:1023800009FA4FB1D4E9012138469047206A401C30
:102390002062C01C206206E0206AFAE7D4E901212D
:1023A00015F8010B9047761EF8D22046FEF708FA82
:1023B000BDE8F0814E414E006E616E00494E460010
:1023C000696E66002DE9F04114460D46074601F19D
:1023D0004C0630461AF036FD094B7B44224629460E
:1023E0003846FFF790FA0446287B000601D54FF0E7
:1023F000FF3430461AF0A6FD2046BDE8F08100000B
:102400004D2E04002DE9F047814616468AB0354826
:1024100078440DC88DE80D0032487844801C03AC28
:102420000DC884E80D0041F69B300844372190FB2D
:10243000F1F290FBF1F5A5F1800501FB12041B3CC4
:1024400002D56442012000E00020DFF898A0804619
:102450000027FA44AAF1BE0A0EE0E0070AD032468D
:10246000684607EB470101230AEB810142F0BBFC00
:102470008DE8070064107F1C002CEED1194F7F44BB
:10248000AE3F19E0E80715D007EB04100DF1180A6C
:1024900090E80E008AE80E00C068F04201D1981959
:1024A00008903246012306A903A842F09CFC03AB26
:1024B00083E807006D10641C002DE3D14FF0010389
:1024C00032466946B8F1000F03A802D042F076FC0C
:1024D00001E042F088FCC9E90001C9F808200AB00F
:1024E000BDE8F087F834040070B504460D4D284669
:1024F0001AF0A8FC03E042F098FE401C0ED00949F7
:1025000014F8010B4C390028F5D10A2042F08DFE59
:10251000044628461AF016FD204670BD4FF0FF34E1
:10252000F7E7000010050020002801D01AF01EBDBA
:102530007047000010B5002102A000F029F801202A
:1025400010BD0000534947414252543A2041626E47
:102550006F726D616C207465726D696E6174696F04
:102560006E00000010B500F02DF8BDE81040FFF738
:10257000DBBF10B500F040F8BDE81040FFF7D4BF56
:1025800010B5FEF7EEFE0068BDE8104000F05CB844
:1025900070B505460C460A2000E06D1C1AF0A2FD3D
:1025A00035B128780028F8D102E0641C1AF09AFDB1
:1025B00014B120780028F8D1BDE870400A201AF044
:1025C00091BD000010B5014602A0FFF7E1FF012018
:1025D00010BD000053494752545245443A205265B9
:1025E0006469726563743A2063616E2774206F704A
:1025F000656E3A200000000010B5012805D00021CA
:1026000003A0FFF7C5FF012010BD09A1F8E70000F6
:1026100053494752544D454D3A204F7574206F66CB
:102620002068656170206D656D6F72790000000033
:102630003A2048656170206D656D6F727920636F17
:10264000727275707465640010B50C301AF008FC75
:1026500010BD000080B540F20001C0F2000140F260
:10266000000247F63840C0F20002C2F20000002922
:102670004FF6000118BF104640F20002C2F20301FB
:10268000C0F2000218BF1146FDF7DCFD80BD00005E
:1026900043F2B831C2F200018867704780B5002963
:1026A00008BF80BD8878202805D343F2B830C2F235
:1026B0000000006F04E043F2B830C2F20000C06EC8
:1026C00082680846904780BD80B543F2B831C2F2B7
:1026D000000181F87C0046F2DC10C0F20400C1E980
:1026E0001B004DF211614DF2C952C0F20101C0F25E
:1026F0000102042004F018F84DF21551C0F2010156
:10270000002002F051F980BD1B296FF00A0202D0AF
:102710001D2918BF002280B510440BF0A1FC80BD1C
:1027200010B582B040F20C41C2F20001096843F2D8
:10273000B832C2F200028C88506703F041F80438C6
:10274000A04207DA00240020642100220223009422
:102750001AF01AFF02B010BD10B5013880B21AF09D
:10276000A5FF30B1044690F8350010B194F834005C
:1027700000B110BD09201AF059FF002808BF10BD94
:102780000346002084F835001E20187220680122BC
:10279000018B042003F022FF10BD000043F2B83C7F
:1027A00043F23841C2F2000CC2F2000100200122C3
:1027B0009CF87C30C1F8A80081F8AC20A1F1380267
:1027C000614600BF013042F8381F032801F124019F
:1027D00082F830301085F5D146F2F810C0F20400CE
:1027E000CCF86C0070470000B0B582B004460B20F6
:1027F0000D461AF01BFF70B103460320188002201B
:102800001872280A5D729872002520460021012264
:1028100000951BF073FA02B0B0BD000043F23840DF
:1028200046F20821C2F20000C0F20401C0F8A8106C
:102830007047000010B504460BF0DCFC43F2E840A2
:10284000C2F20000006860B1218A028A914201D27E
:10285000002207E00246006820B1038A9942F9D2BB
:1028600000E0002243F2E840C2F2000021460BF0F3
:1028700061FC01201BF01CFE0BF0D8FC10BD000019
:1028800043F2E841C2F200010861704780B51BF0D5
:1028900065FC80BDB0B50C46054602F0A1F843F2D8
:1028A0000051C2F20001C96804EB440201EB42018D
:1028B000097988423CBF0020B0BD2846214600F07F
:1028C00001F8B0BD10B50C461BF05AFC002814BF2F
:1028D00030F81400002010BD2DE9F0410C460646EA
:1028E0001BF00EFC48B30546F4B143F20058C2F2A7
:1028F000000898F8140000B300270AE0013798F8A0
:102900001410F8B20234884205F1020528BFBDE870
:10291000F081208828802388002BEFD0F9B2304640
:1029200000221BF003FCE9E743F20050C2F2000072
:10293000007D41002846FEF76FFCBDE8F0810000F5
:1029400043F20053C2F200031875C3E9031243F2C5
:10295000E8404EF29511C2F20000C0F2010141615F
:1029600070470000B0B514460D461BF009FC002866
:1029700018BF20F81540B0BD80B51DF0D5F800682F
:1029800080BD000080B582B04FF0000C4FF01D0EEE
:10299000CDE900EC1BF086FF02B080BD80B582B0AF
:1029A0004FF0000C4FF01B0ECDE900EC1BF07AFF4E
:1029B00002B080BD43F2B83143F22850C2F20001A8
:1029C000C2F2000091F87C201C3800230133C16260
:1029D00080F8282003842431032B00F11C00F5D15A
:1029E00043F2E84046F22021C2F20000C0F20401A6
:1029F0008160704743F2E84046F2DC124DF28553A5
:102A0000C2F200000021C0F20402C0F20103C0E9DA
:102A10000011C0E9022343F2B83046F21021C2F29D
:102A20000000C0F2040101677047000010B50446C1
:102A30000BF0E0FB43F2E840C2F20000016889B10C
:102A4000088AA04202D1002206E000BF0A460968B7
:102A500041B1088AA042F9D143F2E840C2F2000035
:102A60000BF096FB01201BF023FD0BF0DFFB10BDEC
:102A700070B582B015460C4606460BF0BBFB01A9AB
:102A800030461BF027FE28B106468089A04203D2BB
:102A90000D240CE00A240AE0706829462246FEF75D
:102AA000B5FAB07B000744BFB068048000240BF087
:102AB000BDFB204602B070BDB0B514460D461DF0FA
:102AC00033F845600473B0BD10B50C461DF02CF80A
:102AD000046010BD43F27C50C2F200000021C0E946
:102AE0000C1143F2E8404FF63931C2F20000C0F257
:102AF0000101C16040F2A0204FF65D01C2F200006A
:102B0000C0F201010164704780B541F60D1141F238
:102B10002D72C0F20201C0F2020203201DF09EFAE3
:102B200043F2B450C2F200000021C0E90011C0E934
:102B30000211C0E90411C0E9061180BD80B541F65B
:102B40005D11C0F20201072000221DF087FA41F654
:102B50002D21C0F20201082000221DF07FFA43F26D
:102B6000DC60C2F200002421FEF778FB80BD00008B
:102B700080B540F63111C0F20201062000221DF09E
:102B80006DFA43F20070C2F200003421FEF766FBDA
:102B900080BD000080B540F6951140F25572C0F23C
:102BA0000201C0F2020204201DF058FA43F6680048
:102BB000C2F200000021C0E90011C0E90211C0E921
:102BC0000411816180BD000080B541F6DD1141F244
:102BD0003572C0F20201C0F2020205201DF03EFA79
:102BE00043F66800C2F200000021C0E90011C0E90C
:102BF0000211C0E90411816180BD00002DE9F0439C
:102C000081B041F20015C4F20005D5F80402C007F6
:102C100028D0286830B30020286028684FF204507C
:102C2000C4F201004FF48041416047F62420C2F213
:102C300000000178012906D141F25051C4F200018F
:102C400009680A2909D00178022960D141F250515E
:102C5000C4F200010968022959D13BF0DDF801B046
:102C6000BDE8F083D5F8040240072FD5A86868B303
:102C70000020A86048F24419A868C4F200094FF483
:102C800000304FF2045848F24056C9F8C4010820F9
:102C9000C4F20108C4F2000619F0B4FD0220C5F820
:102CA000000143F62650C2F20000007803284ED1FE
:102CB00043F6AE20C2F2000001781820032900F08C
:102CC0008980022908BF0C2000218FE0D5F804027A
:102CD000000740F10381E868002800F0FF80002031
:102CE000E86043F62656E868C2F20006307803280A
:102CF00039D1022030703BF0CBF843F6A820C2F265
:102D0000000001680020884701B0BDE8F08343F669
:102D10002651C2F200010A78032A18BF0278097806
:102D2000042903D00178022940F0DF8000226A6084
:102D300048F244116A68C4F200014FF40032C1F84D
:102D4000C0210A68002A1CBF01220A60CDE0286D5C
:102D500001282CD143F65120C2F20000012101705C
:102D60000020286529E03078042840F0B78043F639
:102D7000B420C2F200000068427848F24050C4F229
:102D80000000816843F65020C2F200000378032B54
:102D900000F0B080022BA1F1090000F0C980012BE6
:102DA00040F0CB806FF03901A1EBC201C9E043F6DE
:102DB0005120C2F200000221017043F65020C2F2FD
:102DC0000000007803281ED0022830D10020022104
:102DD000712230E043F6AF21C2F200010978C0222F
:102DE000012904BF062030220146104643F6502236
:102DF000C2F200021278032A41D0022A45D10822E9
:102E00001023B12444E043F65120C2F200000378BD
:102E10001820012B6FF0B30140F2251208BF0620E5
:102E200008BF6FF03001012B08BF952203E000209E
:102E30006FF001017D2243F6AE23C2F200031B783E
:102E400043F6B0249F1EB7FA87F77F09032B08BF0C
:102E50004FF0FF37B3681144C2F20004084494F9FC
:102E600000401844384420443060A5F58070C8F80C
:102E700080004FF480400121C8F8000020E050227B
:102E80004FF4807340F20B1402E008222023A124A7
:102E9000B7680844384400F16A013160A5F1FC01CB
:102EA000C8F880104FF48041C8F80010E1181144B0
:102EB000084470600020C9F80000D9F80000022121
:102EC00047F62420C2F200000170012149F8F81CE5
:102ED0003168F268891AB1F1FF3F02DD01B0BDE847
:102EE000F0834FF48041C8F804100021017001B054
:102EF000BDE8F08343F65120C2F2000003786FF082
:102F00003F00012B08BF6FF00F006FF09F0702F129
:102F1000020208BF6FF0130750436FF013023944E9
:102F2000012B08BF6FF01C021144A1F2811108E0CF
:102F30006FF01C01A1EB820103E00020A0EBC200B6
:102F4000413941F25054C4F2000454F8087C01EBBA
:102F5000000809F0A7F807F07F010844022131704A
:102F600043F65121C2F200010F7847F62521C2F243
:102F70000001097843F6AF22C2F20002002908BF1F
:102F80003946117043F64C22C2F20002D5F8001304
:102F900016684FF6BC62CFF6FF72A258C907C0F19F
:102FA000000041B201D1042000E000204346009718
:102FB000B04701B0BDE8F08380B582B048F2083078
:102FC000C4F200004FF40031016041F20410C4F279
:102FD0000000006808B102B080BD3AF01DFF43F662
:102FE0004C20C2F20000D0F800C04FF0000E0320C9
:102FF000002100220023CDF800E0E04702B080BDB0
:103000002DE9F04F87B006468A460888317CC840D3
:10301000C00758D043F2C071C2F2000148889846F8
:1030200001304880D6E90001994649F8080FC8E9FF
:103030000001B07CD9601D46DAF8041005F8130FC2
:1030400014469874C1F3801011462A464B461CF072
:1030500095FF02284FF0000B00F0B880069401287D
:1030600008BF4FF0010BDAF80400DAE9047429789C
:10307000D9E90023CDE90274C0F3C007C0F3800092
:1030800000971CF01BFFBAF80210327C074621FAA9
:1030900002F02978D9E9002300F001001CF0B4FF08
:1030A00087421AD9DAF80400DAE904742978D9E9F0
:1030B0000023CDE90274C0F3C007C0F3800000977D
:1030C0001CF0FCFE14E043F2C070C2F20000018864
:1030D0004FF0000B0131018078E0BAF80200317C3A
:1030E000D9E90023C840297800F001001CF08CFFCA
:1030F000002818BF012802D14FF0010B07E0022879
:1031000005D1BBF1000F02D04FF0000B5EE0707CE8
:103110000121800788F814B088F8151002D44FF008
:10312000010B53E0D9E90012F77CDAF80400D6E984
:1031300002642B78CDE904120699C0F300103A46D8
:10314000CDE9006402931CF0DBFE8346012806D023
:10315000BBF1020F05D100204FF0000B32E0002040
:1031600030E00AF1040207CACDE90212C0F34005BB
:1031700000F0010039463246234600951CF07CFEE3
:10318000022812D14FF0000067B104F4404191F4DD
:10319000804F4FF0000B15D19AF8040080064FF0D5
:1031A000000004D44FF0000B0CE001200AE043F2D1
:1031B000C072C2F20002118C4FF0010B0131118478
:1031C00088F81500002818BF4FF0010B5FFA8BF04C
:1031D00007B0BDE8F08F000070B582B008F07EFA4D
:1031E0004FF605654FF6855440F24D16C0F20105C5
:1031F000C0F2010440F21913C0F20206C0F2020349
:10320000012029462246009601F026F840F22913B3
:10321000C0F20203022029462246009601F01CF863
:1032200040F2551640F23913C0F20206C0F2020312
:10323000032000212246009601F00EF843F234707C
:10324000C2F200008C21FEF709F802B070BD000048
:10325000B0B543F2E67CC2F2000C00258CF80050B9
:1032600043F2E77C8C07C2F2000C0C468CF800504D
:1032700001F1040E18BF2EF0030404EB0013591AD9
:1032800047F25043C2F2000391421C609CBF8CF88D
:1032900000000D46A8B2B0BDB0B543F2EC7CC2F25E
:1032A000000C00258CF8005043F2ED7C8C07C2F234
:1032B000000C0C4600EBC0038CF8005001F1040E2A
:1032C00018BF2EF0030404EBC303591A47F254430A
:1032D000C2F2000391421C609CBF8CF800000D46B6
:1032E000A8B2B0BD10B543F2EF7CC2F2000C4FF0B3
:1032F000000E43F2EE738CF800E043F2F07CC2F271
:1033000000038C07C2F2000C83F800E001F1040313
:103310000C468CF800E018BF23F0030404EBC00354
:10332000591A47F25843C2F2000391421C609CBFF5
:103330008CF800008E461FFA8EF010BD2DE9F04F7C
:103340008BB0824600781D460E4600F00F030888B9
:10335000012101FA03F919EA000F0FD0144643F2D4
:10336000C072C2F2000251889AF80100013119F4CA
:10337000C07F51800CD04FF00108EFE043F2C070E5
:10338000C2F2000001884FF0000801310180E5E041
:1033900000F03F002B746874504610F8021B08932D
:1033A000C1F3801800F0E4FF2B4643F8080FC5E98D
:1033B00000012F46706807F8138FE960C0F3801092
:1033C00021463A4685F812800A931CF0D7FD022860
:1033D0004FF0000800F0C28001280996CDE90645AB
:1033E00008BF4FF00108099EDDF828B07068D6E9E3
:1033F000044C3978DBE90023CDE9024CC0F3C0046A
:10340000C0F3800000941CF059FD7188044619EA4D
:1034100001003978DBE9002318BF01201CF0F4FD1E
:10342000844211D9DDF828907068D6E9044C3978C7
:10343000D9E90023CDE9024CC0F3C004C0F38000F9
:1034400000941CF03BFD0BE07088397810EA09000D
:10345000DDF82890D9E9002318BF01201CF0D4FD25
:10346000DDF81CB03D46002818BF012830D14FF0D0
:1034700001080899012005298BF814808BF81500A4
:103480002ED8884010F02A0F2AD01AF8080B08907E
:10349000C409504600F06CFF07460998D9E9002698
:1034A00040682B788946CDE900710699CDE904265C
:1034B000C0F30010224602931CF022FD8046012832
:1034C00011D0B8F1020F10D100204FF0000841E0F8
:1034D0000228CED1B8F1000FCBD04FF000083DE06C
:1034E0004FF001083AE0002034E0099A4B46161DDF
:1034F00043CE0291C0F34001009100F0010021464B
:103500003A4603961CF0B8FC022816D1089840B23F
:10351000B0F1FF3F4FF000000CDC09F4404191F4A2
:10352000804F4FF0000815D10998007980064FF0C0
:10353000000004D44FF000080CE001200AE043F240
:10354000C072C2F20002118C4FF0010801311184E7
:103550008BF81500002818BF4FF001085FFA88F0BB
:103560000BB0BDE8F08F0000B0B546F20832C2F2F1
:10357000000292F8EBC081F800C092F8EAE092F8FD
:10358000EB30734508D1D2E936E3D2E938546340D1
:1035900085EA0E052B4302D04CF002030B70D2E9F2
:1035A0003812C0E90012B0BDB0B590F813C082F86F
:1035B00000C090F812E0C37C734508D1D0E900E365
:1035C000D0E90254634085EA0E052B4302D04CF04B
:1035D00002031370D0E90202C1E90002B0BD00008D
:1035E000B0B590F813C082F800C090F812E0C37C28
:1035F000734508D1D0E900E3D0E90254634085EA7D
:103600000E052B4302D04CF002031370D0E90202E6
:10361000C1E90002B0BD0000B0B545F6D002C2F26B
:10362000000292F86BC181F800C092F86AE192F84A
:103630006B31734508D1D2E956E3D2E9585463405F
:1036400085EA0E052B4302D04CF002030B70D2E941
:103650005812C0E90012B0BDB0B590F813C082F89E
:1036600000C090F812E0C37C734508D1D0E900E3B4
:10367000D0E90254634085EA0E052B4302D04CF09A
:1036800002031370D0E90202C1E90002B0BD0000DC
:10369000B0B590F813C082F800C090F812E0C37C77
:1036A000734508D1D0E900E3D0E90254634085EACC
:1036B0000E052B4302D04CF002031370D0E9020236
:1036C000C1E90002B0BD0000B0B590F813C082F8A7
:1036D00000C090F812E0C37C734508D1D0E900E344
:1036E000D0E90254634085EA0E052B4302D04CF02A
:1036F00002031370D0E90202C1E90002B0BD00006C
:1037000080B546F20831C2F2000191F8EA2091F842
:10371000EB3093424FF00002C0E900220AD1D1E918
:1037200036CED1E9383282EA0E0283EA0C031A431C
:1037300008BF80BDD1E93612C0E9001280BD00008B
:1037400080B5827CC37C93424FF00002C1E9002225
:103750000AD1D0E900CED0E9023282EA0E0283EA31
:103760000C031A4308BF80BDD0E90002C1E9000282
:1037700080BD000080B5827CC37C93424FF0000284
:10378000C1E900220AD1D0E900CED0E9023282EAB2
:103790000E0283EA0C031A4308BF80BDD0E9000281
:1037A000C1E9000280BD000080B545F6D001C2F23B
:1037B000000191F86A2191F86B3193424FF00002B9
:1037C000C0E900220AD1D1E956CED1E9583282EAC5
:1037D0000E0283EA0C031A4308BF80BDD1E95612DA
:1037E000C0E9001280BD000080B540F6E111C0F2D2
:1037F0000201092000221CF031FC43F62420C2F211
:1038000000002421FDF72AFD80BD000070B543F2C1
:10381000E67C43F2E771C2F2000CC2F200019CF8B0
:1038200000E009788E4524BF002070BD47F250416A
:10383000C2F200010968049C01EB0E1528720EF11A
:1038400001004FEA0E166C728CF8000001208A51BC
:103850006B6070BD2DE9F04143F2E676C2F20006DE
:103860003178002918BF012128D047F25044C2F214
:10387000000496F800E02568DDF818C0F046083529
:103880000026BEF1010F98BF4FF001080AE000BF0B
:10389000013676454FF0000138BF0121B04505F1F2
:1038A00010050BD02F788742F2D155E902745C40A5
:1038B00057403C43ECD16C786445E9D101F00100FC
:1038C000BDE8F08143F2E670C2F200000021017011
:1038D0007047000043F2E770C2F2000000787047C2
:1038E0002DE9F04F43F2E67CC2F2000C9CF800E0B8
:1038F000BEF1000F714618BF01213ED047F250457E
:10390000C2F200059CF800B0D5F80080DDF82490E4
:10391000DA4608F108050027BBF1010F98BF4FF008
:10392000010A09E001375F454FF0000138BF01216E
:103930001035BA45DE4620D02E788642F2D155E9C0
:1039400002645C4056403443ECD16C784C45E9D17C
:103950005FFA8EF002280CD30138874209D008EBB9
:103960000012138900012B80526858F8000045E9C5
:103970000202AEF101008CF8000001F00100BDE888
:10398000F08F0000F0B581B01E46154607461CF0CA
:1039900047FA0446B0B943F2EC7043F2ED72C2F25A
:1039A0000000C2F2000201781278914256D247F22A
:1039B0005442C2F20002126801EBC10302EBC304DD
:1039C00001310170002C4CD0DDE9061046EA0742B7
:1039D000C4E908520A684B688F68C9682260E160D0
:1039E00001216360A76084F840100021625C22B965
:1039F0000E2901F10101F9D902E0002184F84010FB
:103A0000016842688368C768204640F8101F01219A
:103A1000C7608360426080F8311000216218127C18
:103A200022B90E2901F10101F8D902E0002184F840
:103A3000411094F8411000294FF00001A4F8421001
:103A4000C4E90A11C4E90C11C4E90E1103D11CF038
:103A5000E7FBC4E90C01012001B0F0BD0024002CFB
:103A6000B2D1002001B0F0BD2DE9F04182B0DDE916
:103A700008781446064610463A4643460D461CF062
:103A8000CFF920B190F8411019B1002423E00024AF
:103A900021E0D0E90E0169407040084301D10124C2
:103AA00019E043F2E870C2F20000D0F800C0BCF1A7
:103AB000000F0FD043F2C070C2F20000818C0022D0
:103AC00001318184304629462346CDE9007800241F
:103AD000E04700E00024204602B0BDE8F08100008D
:103AE00070B582B043F2EC75C2F200052C788CB34D
:103AF00047F25444C2F2000495F800E02568BEF194
:103B0000010F98BF4FF0010E05F120044FF0000C9B
:103B100008E04FF0010C0125CDB1BEF1010E04F11A
:103B2000480419D094F82050002DF4D1D4E902565D
:103B30004E4045403543ECD1A57905F0010515709F
:103B4000A5882668C3E900650025002DE5D14FF062
:103B5000010C1EE04FF0000CBCF1000F4FF0000C08
:103B600017D043F2E876C2F2000634688CB143F213
:103B7000C076C2F20006758C0135758492F800C0DB
:103B8000D3E900266346009201220196A0474FF038
:103B9000000C604602B070BD43F2EC70C2F200004F
:103BA0000021017070470000B0B51CF039F918B160
:103BB000044690F8400008B10020B0BD94F84200DF
:103BC000049D38B920461CF02BFBC4E90A010120F2
:103BD00084F84200D4E90A01C5E900010120B0BD22
:103BE00080B51CF01DF928B1029990F843000870C7
:103BF000012080BD002080BD43F2ED70C2F20000C4
:103C0000007870472DE9F04381B043F2EC78C2F2BE
:103C1000000898F8000050B347F254490026C2F259
:103C200000090125002708E084F8445098F80000B6
:103C30000137874206F1480619D2D9F800008419E5
:103C400094F8410028B904F110001CF0E9FAC4E925
:103C50000C0194F840000028E6D194F842000028B6
:103C6000E2D020461CF0DCFAC4E90A01DCE701B02E
:103C7000BDE8F08370B51446DDE90423054620460F
:103C80000E461CF0CDF850B190F8411039B9D0E98A
:103C90000E0171406840084304BF012070BD002040
:103CA00070BD000080B51CF0BBF8014600284FF045
:103CB000000008BF80BD91F8442081F84400104600
:103CC00080BD000080B51CF0ABF860B1D0E90C12EB
:103CD00011431CBF032080BD90F841100120002932
:103CE00008BF022080BD002080BD000080B51CF010
:103CF00097F860B1D0E90A1211431CBF032080BDC0
:103D000090F840100120002908BF022080BD00204B
:103D100080BD000080B51CF083F800281CBFD0E9EE
:103D20000C0150EA010201D1002080BD029AC2E9D3
:103D30000001012080BD000080B51CF071F8002852
:103D40001CBFD0E90A0150EA010201D1002080BD68
:103D5000029AC2E90001012080BD0000B0B51CF04C
:103D60005FF8B8B143F2EC74C2F200042578022D7A
:103D70000CD347F25441C2F20001096805EBC502B9
:103D800001EBC20148394822FDF7C7F9681E2070CF
:103D90000120B0BD0020B0BD2DE9F0410C461178E6
:103DA000D3E90023054608461CF03AF843F2C078F0
:103DB000C2F2000808F1140728B1064690F8410045
:103DC00018B1002018E0002016E0D6E90E0161408D
:103DD0006840084304BF0120BDE8F08106F11000EF
:103DE0002A4623461DF05EFF00280FBF0020C6E9CB
:103DF0000E5408F116070120398801313980BDE8D9
:103E0000F08100002DE9F04F81B043F2EC7AC2F26C
:103E1000000A91469AF800200093002A41D047F208
:103E2000544B0E4607460025C2F2000B4FF0000827
:103E300008E000BF9AF8000008F10108804505F18C
:103E400048052ED2DBF80000441994F84000002801
:103E5000F0D1D4E90A0171407840084312D02046DD
:103E60003A4633461DF01EFF0028E3D043F2C071EE
:103E7000C2F200014A8A002084F84200501CC4E9C2
:103E80000A76488294F82600009A00F0010089F82A
:103E90000000A08C216AC2E90010012001B0BDE839
:103EA000F08F43F2C070C2F20000018A013101823A
:103EB000002001B0BDE8F08F43F2E871C2F20001CA
:103EC0000860704780B51BF0ABFF00280FBF0020D3
:103ED000029980F84310012080BD000080B51BF0DE
:103EE0009FFF30B10299D1E90012C0E90C12012004
:103EF00080BD002080BD000070B543F23476C2F270
:103F000000060C460546C6F88000A6F87C1000F0B6
:103F10007DF9806A007805280AD196F860000028AB
:103F200018BF70BD1CF0D4F82846214607F046FCA7
:103F300070BD000080B540F63121C0F202010220C0
:103F400000221CF08BF843F65820C2F20000282112
:103F5000FDF784F980BD0000B0B541F64D3441F65F
:103F6000F921C0F20204C0F202010020224600251D
:103F70001CF074F841F6AD21C0F202010120224686
:103F80001CF06CF843F68020C2F20000C0E9005536
:103F9000C0E90255C0E904558561B0BD2DE9F04185
:103FA0000C46054600F032F9806A007804280ED1EC
:103FB00043F23470C2F2000090F8600038B91CF08F
:103FC00087F82846214607F069FDBDE8F08143F6F1
:103FD0006808C2F20008B8F81660002007F0FAFD81
:103FE00043F61C17C2F200073968401AB04202D2E9
:103FF000B8F8160004E0002007F0ECFD3968401A1C
:10400000A8F816001CF064F82846214607F0A6FD23
:10401000BDE8F08170B51D461446064600F02AF84A
:1040200008B1012070BD43F2EF7043F2F072C2F2AA
:104030000000C2F2000201781278914224BF0020F1
:1040400070BD47F25842C2F20002126845EA0643C8
:1040500002EBC10642F8314001317360017001206A
:1040600070BD000043F2EE70C2F200000121017049
:104070007047000010B543F2EF7EC2F2000E9EF8CA
:104080000010B1B143EA004C47F25840C2F20000C0
:1040900001689EF800E0002001EBC00351F83040B9
:1040A0005B68544083EA0C03234304D0013070451D
:1040B000F2D3002010BD012010BD000043F2EF70CC
:1040C000C2F200000021017043F2EE70C2F2000063
:1040D0000170704743F2F070C2F200000078704740
:1040E00043F2EE70C2F2000000787047F0B543F280
:1040F000EF7CC2F2000C9CF80010C9B143EA004EFC
:1041000047F25840C2F2000000689CF800300024DA
:10411000E6B200EBC60550F836606F68564087EA95
:104120000E073E4306D00134E1B299421946EFD35F
:104130000020F0BDCAB2022A05D300EBC20050E94C
:104140000202C5E90002481E8CF800000120F0BD03
:1041500043F2EE70C2F200000021017070470000CF
:1041600010B543F2F474C2F200042068002808BFBE
:1041700010BDC17D01EB810104EB8101C9680029FB
:1041800018BF88470020206010BD0000B0B543F282
:10419000F475C2F200050446286095F86D00002110
:1041A000002885F86E1008BF07F00CFD95F86D002B
:1041B00030B195F86C00E17D884218BF1CF096FF85
:1041C00095F86D0010B9E07D1CF07AFFE07D00EB02
:1041D000800005EB8000816809B12046884795F88A
:1041E0006E0000281CBF00202860B0BD43F2F470B0
:1041F000C2F2000090F86E007047000047F25C4089
:10420000C2F20000006800887047000043F2F470BA
:10421000C2F200000068704747F25C40C2F2000042
:104220000068C0887047000080B507F0FDFC43F2CD
:10423000F470C2F200007021FDF710F880BD00009C
:1042400047F25C41C2F200010860704743F2F4712A
:10425000C2F200014860704780B500EB800E43F267
:10426000F470C2F2000000EB8E000830DDF808C0E8
:1042700080E80E1080BD000043F2F470C2F200002E
:10428000016800291CBF012180F86E1070470000F2
:10429000B0B543F2F475C2F2000595F86D1004460E
:1042A00021B907F08FFC20461CF00AFF04EB8400C4
:1042B00005EB8000816901318161B0BD80B543F2B9
:1042C000F47100EB8002C2F2000101EB82029369FB
:1042D000013B93610BD191F86D2042B191F86C10C4
:1042E000814218BF80BD1CF001FF07F061FC80BD5A
:1042F00080B543F2F470C2F2000000214268016010
:10430000012180F86E10904780BD0000110A4170B5
:10431000110C4FEA132C8170110E0270C1700371E1
:1043200080F805C0704700000022014682800630F8
:104330000A60704780B50622FCF71DFEB0FA80F0D7
:10434000400980BD8A88828009680160704700004A
:1043500080B582B00021ADF80410009169460622B4
:10436000FCF709FEB0FA80F0400902B080BD000001
:10437000026881881046704702684168104670479D
:104380004FF20830C4F200000121016043F6A7009B
:10439000C2F200004178FF2906D043F6AC21C2F2F8
:1043A0000001097841707047FEE70000D1F800C0B5
:1043B0004B68CA688968C26081604360C0F800C009
:1043C000704700004A680968426001607047000059
:1043D00001390138102200BF11F801CF10F8013F58
:1043E000013A8CEA030C130680F800C0F4D1704740
:1043F00080B581B146F2402C013AC0F2040C00BFF6
:1044000012F801EFC3B283EA0E035CF823300139DE
:1044100083EA1020F4D1C04380BD00002DE9F04FA5
:1044200083B043F6E42BC2F2000BDBF8040010B1BA
:1044300003B0BDE8F08F9BF8095000260DF10B0882
:104440000DF102090DF1040A002403E0032C04F12C
:104450000104EDD2E8B201358DF80B60022888BF67
:104460000025EFB2780050FA85F00BEB8000036A6C
:104470000196002BADF80260E8D04046494652460E
:1044800098470028E2D001999DF80B00CBF8041062
:104490008BF808008BF809501DF00EFD9DF80B10ED
:1044A000BDF80220019B38461DF04AFD03B0BDE86F
:1044B000F08F0000B0B543F6E425C2F200050446D3
:1044C00028466421FCF7CAFE2C701DF049FCB0BDE3
:1044D00080B543F6E420C2F200004068002818BF0F
:1044E00080BD0020FFF79AFF80BD000080B543F635
:1044F000E421C2F2000191F8600000284FF00000B2
:1045000008BF80BD81F860001DF004FD012080BD62
:10451000032888BF704700EB400C43F6E420C2F24A
:10452000000000EB8C0018300EC0704743F6E42109
:10453000C2F20001486170474EF60450CEF200000E
:104540004FF0006101607047B0B582B08DF8071080
:104550000DF1070001211C46154610F0F7FF20461B
:10456000294610F0F3FF284602B0B0BD80B5042004
:1045700009F050FD002808BF80BD014643F6943085
:10458000C2F20000007B05228A7009F077FD80BD31
:104590002DE9F04107460E20984616460C4609F0D4
:1045A00039FD002808BFBDE8F08105460020A8704D
:1045B000E81D41466C712F71AE71FFF7C3FE43F6E3
:1045C0009430C2F20000007B294609F057FDBDE897
:1045D000F081000070B514460D46064609F00AFE4B
:1045E00043F69040C2F200000D2116FB0100C57099
:1045F000047109F01BFE70BD80B509F0FBFD40F2AF
:10460000E82046F25C71C2F20000C0F204010160D1
:104610001EF08CF943F68C40C2F2000000210160CC
:10462000002001F027FF09F001FE80BDB0B50C4667
:10463000054609F0DFFD43F69040C2F200000D216F
:1046400015FB0100847009F0F1FDB0BDB0B50C465A
:10465000054609F0CFFD43F69040C2F200000D215F
:1046600015FB0100047209F0E1FDB0BD10B5044670
:1046700009F0C0FD43F69430C2F20000847309F0E3
:10468000D5FD10BDB0B50C46054609F0B3FD43F6A7
:104690005030C2F200002844C47709F0C7FDB0BD15
:1046A0002DE9F041064603F108001C4690460F46EE
:1046B00009F0B0FC002808BFBDE8F0810546069966
:1046C0000120A87005F1080022462E716F7185F84F
:1046D0000680EC71FCF79AFC43F69430C2F20000BD
:1046E000007B294609F0CAFCBDE8F081B0B50C4654
:1046F000054609F07FFD43F69040C2F200000D210F
:1047000015FB0100447209F091FDB0BD70B514466F
:104710000D46064609F06EFD43F65030C2F2000029
:1047200000EB46000582C48209F080FD70BD0000E8
:10473000F0B581B01C4615460E46074609F05AFDF5
:1047400043F69040C2F200000D2117FB01004671B4
:104750008571C47109F06AFD01B0F0BD70B50646FF
:104760000C200D4609F056FC002808BF70BD044619
:104770000620A070601D29462671FFF7E3FD43F671
:104780009430C2F20000007B214609F077FC70BD36
:104790002DE9F04107461220984615460E4609F0CD
:1047A00039FC002808BFBDE8F0810146022088706E
:1047B0000F717FB1002000BF325C0B185A7135F8C1
:1047C000102001EB4004228118F8002001308742BC
:1047D0009A73F1D143F69430C2F20000007B09F0E5
:1047E0004DFCBDE8F0810000B0B5044608200D4640
:1047F00009F010FC002808BFB0BD014603208870F6
:104800000C713CB1081D6A1E12F8013F013C00F812
:10481000013FF9D143F69430C2F20000007B09F069
:104820002DFCB0BDB0B50C46054609F0E3FC43F6DF
:104830009040C2F200000D2115FB0100447009F008
:10484000F5FCB0BD10B5044609F0D4FC43F6B83110
:1048500004EB4400C2F2000101EB001030F8224CDE
:1048600009F0E4FC204610BD70B50446062015464C
:104870000E4609F0CFFB002808BF70BD014631206D
:10488000887043F69430C2F20000007B0E800D71F8
:10489000CD704C7109F0F2FB70BD000043F6B831E9
:1048A000C2F200010C31032207E000BF013A1306F7
:1048B00001F1300104BF002070478B7A002BF5D046
:1048C0000B888342F2D108797047000043F6B83173
:1048D00000EB4000C2F2000101EB001010F81A0CCE
:1048E0007047000040F2E82046F2DC7146F2687240
:1048F000C2F20000C0F20401C0F20402C0E90312D7
:1049000043F6AC3046F27471C2F20000C0F204010A
:104910000160704743F6B83100EB4000C2F200017D
:1049200001EB00102A38704743F6B83100EB400025
:10493000C2F2000101EB001010F81C0C70470000DF
:1049400043F6B83100EB4000C2F2000101EB001069
:104950001638704743F6AC3046F29C71C2F2000044
:10496000C0F204014160704743F6B83100EB4000EB
:10497000C2F2000101EB00103038704743F6B83145
:1049800000EB4000C2F2000101EB001010F81D0C1A
:104990007047000043F6B83100EB4000C2F200015E
:1049A00001EB001010387047B0B50C46054609F011
:1049B00021FC43F6B830C2F2000000EB8500C0F8DD
:1049C000904009F033FCB0BD43F6B83100EB400035
:1049D000C2F2000101EB001010F8170C7047000044
:1049E00043F6B83100EB4000C2F2000101EB0010C9
:1049F00010F8190C7047000070B516460C460546B5
:104A000009F0F8FB2846FFF761FF68B143F6B831BB
:104A100005EB4500C2F2000101EB00103EB130F899
:104A2000221C214320F8221C09F000FC70BD30F844
:104A3000221CA14320F8221C09F0F8FB70BD0000E5
:104A400043F6AC3046F2C471C2F20000C0F2040179
:104A50008160704780B5042009F0DCFA002808BFA7
:104A600080BD014643F69430C2F20000007B702204
:104A70008A7009F003FB80BD80B51EF0D9FC80BDB3
:104A800080B50A46014600201EF0D2FC80BD000021
:104A900010B5044643F69430C2F200002146FFF7F9
:104AA00051FC204601F07EFB10BD000080B509F0EE
:104AB000A1FB40F2E82046F25071C2F20000C0F2C1
:104AC0000401016046F6D401C0F2040181621EF0C7
:104AD0008DFF1FF017FB43F68C4045F67961C2F25B
:104AE0000000C0F200010160002001F0B7FC09F0F5
:104AF0009DFB80BD43F6AC3046F28C71C2F20000E3
:104B0000C0F204014160704743F6AC3046F2AC712C
:104B1000C2F20000C0F204018160704780B509F064
:104B200069FB40F2E82046F6F801C2F20000C0F24C
:104B3000040181601FF000FE1FF0CEFF09F076FB3C
:104B400080BD000010B5D1B192F800E04FF0000C2C
:104B5000BEF1000F11D08BB273450ED9144614F874
:104B6000013F9446834208D06FEA0E0211440A04C2
:104B700004EB0E02E8D14FF0000C604610BD00209F
:104B800010BD000080B599B143F69430C2F2000028
:104B9000007C002818BF80BD88783C2202EA900083
:104BA00040F2E822C2F2000210588268084690479C
:104BB00080BD000080B543F69431C2F20001087355
:104BC0000020C875087443F66970C0F2020000F056
:104BD000D5FD80BD43F69431C2F20001C97D0029A4
:104BE00008BF7047022804BF00207047032808BF91
:104BF0000120704780B5014603201FF0CFF980BD2A
:104C000080B582B0ADF8041043F6B831C2F20001AD
:104C1000D1F89C106322ADF806006846ADF802207A
:104C2000884702B080BD000010B582B00C461EF06F
:104C3000FDF838B136218DF802106946ADF8044010
:104C40001EF030FB02B010BDB0B584B0054608467A
:104C500014461EF0EBF840B135218DF8061001A97D
:104C600002948DF80C501EF01DFB04B0B0BD000086
:104C700043F69431C2F20001C97D002908BF704794
:104C8000002804BF02207047012808BF0320704796
:104C900010B50446062009F0BDF9002808BF10BD74
:104CA0000146A220887043F69430C2F20000007BD7
:104CB0000C7109F0E3F910BD10B50446062009F0A7
:104CC000A9F9002808BF10BD0146A320887043F64B
:104CD0009430C2F20000007B0C7109F0CFF910BDD6
:104CE00040F2E82046F6E001C2F20000C0F2040102
:104CF000416270472DE9F04381B004462C2098466C
:104D000016460F4609F086F9F0B10546DDE9089030
:104D10006221A9702880681D39462C71FFF712FBAB
:104D200005F10B003146FFF741FB05F11B00414641
:104D3000FFF73CFB43F69430C2F20000007B2946AB
:104D400085F82B9009F09AF901B0BDE8F0830000D6
:104D500040F2E82046F6EC01C2F20000C0F2040185
:104D60008161704710B59AB040F2E821C2F20001AB
:104D7000096A46F6840243F69434C0F20402C2F291
:104D800000049142A06009D000F01AFD442805D823
:104D90004FF0B270A168019001A888471AB010BD09
:104DA000B0B5054610200C4609F034F9002808BFBC
:104DB000B0BD0146422088700D8020686268A368FB
:104DC000486043F694308A60CB60C2F20000007BFA
:104DD00009F054F9B0BD000080B509F00BFA40F2BB
:104DE000E82046F60411C2F20000C0F2040181601E
:104DF0001FF0A2FC09F01AFA80BD000080B51FF078
:104E0000C3FC80BD2DE9F04381B0074610209846D1
:104E10001646894609F0FEF838B30146DDE908EC8C
:104E2000202088704B1D0020002400220F7100BF3D
:104E300027FA00F5ED0702D0355D01321D55D4B2D9
:104E4000022C03D8072800F10100F1D343F6943077
:104E5000C2F20000007B81F80890A1F80AE0A1F8F6
:104E60000CC081F80E8009F009F901B0BDE8F083AB
:104E700080B5042009F0CEF8002808BF80BD0146A7
:104E800043F69430C2F20000007B21228A7009F0C0
:104E9000F5F880BDF0B581B00746162015460C46E2
:104EA00009F0B8F868B106460420B0703780347550
:104EB00025B1301D29462246FCF7A8F8304608F0F7
:104EC00035FC01B0F0BD0000B0B5054604200C462D
:104ED00009F0A0F8002808BFB0BD0321817005804B
:104EE000C47008F023FCB0BDF0B581B007462020A7
:104EF00016460C4609F08EF888B105465020A87079
:104F0000281D31461A222F80FCF780F843F6943092
:104F1000C2F20000007B2946AC7709F0AFF801B07F
:104F2000F0BD0000C0684DF6836100BAC4F21B31C9
:104F3000A0FB0112910C43F609525143A0EB8110E2
:104F40007047000046F26870C2F20000704700002F
:104F500043F60C50C2F200004068704743F60C5014
:104F6000C2F200000068704740F2E82046F61011D7
:104F7000C2F20000C0F20401416143F60C5046F257
:104F80003021C2F20000C0F20401C0E900117047F4
:104F900040F2E82046F61C11C2F20000C0F2040103
:104FA000016270472DE9F0410446162098461646E6
:104FB0000F4609F02FF8002808BFBDE8F08105462C
:104FC0005120A8702C802F756E751FB1281D414689
:104FD000FFF7ECF943F69430C2F20000007B29465B
:104FE00009F04CF8BDE8F081F0B581B00746082023
:104FF0001C4615460E4609F00DF868B106990122C7
:10500000827004F0070201F0070107800671457104
:105010008271C17108F08AFB01B0F0BDF0B581B0BA
:10502000074608201C4615460E4608F0F3FF68B1F7
:1050300006990222827004F0070201F0070107803E
:10504000067145718271C17108F070FB01B0F0BD4D
:1050500080B5014646F26870C2F200006022FBF79C
:10506000D5FF80BDB0B5054606200C4608F0D2FF3E
:10507000002808BFB0BD052181700580047108F0CB
:1050800055FBB0BD10B5044680782C2801D02A28E5
:1050900008D143F6B830C2F20000D0F8901009B140
:1050A0002046884743F69430C2F2000081682046CB
:1050B000884710BDB0B514460D461DF0CFFE002840
:1050C00008BFB0BD00218289817446F23021057687
:1050D000C0F2040110460022234601F0BDF8B0BD25
:1050E000F0B591B00646104615460C463EF08AFFD4
:1050F00008B111B0F0BD09AF384621463FF046F97E
:1051000001A831463A463FF033F9384639463FF078
:105110003DF9204621462A463FF02AF928462946ED
:105120003FF034F9304631462A463FF055F82846DC
:1051300029462A463FF050F8284631462A463FF095
:1051400033F9304631462A463FF012F928463146B7
:1051500032463FF041F8304631462A463FF03CF8AF
:10516000304600213FF02CFA80B146F23072C0F296
:105170000402304631463EF001FF074630463FF01C
:10518000A5F9F06940EAC770F06102E030463FF0EF
:105190009DF9284631463FF0F9F801AF28462946E7
:1051A0003A463FF001F9284629463A463FF0FCF8D6
:1051B000384639462A463FF0F7F8304631463A46F7
:1051C0003FF0D6F809AF384631463A463FF0ECF8A2
:1051D000304629463FF088F9284621463FF084F9B9
:1051E000204639463FF080F911B0F0BD10B50446B5
:1051F0003EF008FF38B104F120003EF003FF002824
:1052000018BF012010BD002010BD00002DE9F04F97
:105210008BB004460078042827D88A461646DFE873
:1052200000F003264266810004F12407DDF850A057
:105230003846314604F104083FF056F904F164059C
:1052400006F12001284604F144093FF04DF93846A3
:10525000294642464B46CDF800A009F021F9FF202F
:10526000C4F8840000250120A9E00125A8E0D4F8B5
:10527000841018463FF0A4F9B0FA80F1221D4B09C2
:10528000002818BF012002EB401704F1440606EB8A
:10529000401102EB431206EB4313384609F090F835
:1052A000002502208BE0D4F8841018463FF088F9DE
:1052B000B0FA80F14909221D002818BF012002EB35
:1052C000411704F1440303EB411102EB401203EBDD
:1052D0004013384609F026F8D4F884000025013838
:1052E000C4F884004FF00300C8BF012067E01846EF
:1052F000002100253FF064F9B0FA80F1221D4B092E
:10530000002818BF012002EB401704F1440606EB09
:10531000401102EB431206EB4313384609F050F8F4
:1053200004204CE0184600213FF04AF90546B0FA47
:1053300080F0400904F1040903AF029004F1240154
:1053400038464A46002D18BF01253FF02DF804F1DC
:10535000440808EB451B384639465A463FF008F8E2
:105360003846394632463FF003F8384639463EF073
:105370004BFF06F12002384639463EF0F9FF09EBB3
:105380004515384639462A463EF0F2FF02992A462C
:1053900009EB411008EB41115B4608F0C3FF48469A
:1053A00041463A4617F0A6FF504649463FF09CF862
:1053B0000AF1200041463FF097F8012505202070B2
:1053C00028460BB0BDE8F08F80B5930706D4D2070E
:1053D00000F10C0014D117F0D1FF80BDC06802F0BD
:1053E000010C00EA010353EA0C0218BF0246104602
:1053F0008B4218BF0020BCF1000F08BF104680BDD3
:1054000017F094FF80BD000080B50C3018F052F802
:1054100080BD00007047000080B540F23712C8F22E
:1054200001023EF059F980BD80B540F23112C8F258
:10543000010201463EF050F980BD000080B540F207
:105440003812C8F201023EF047F980BD80B540F243
:105450003312C8F201023EF03FF980BD80B540F240
:105460003212C8F201023EF037F980BD80B538F043
:10547000EDFB3EF031F880BD10B5144601294FF028
:10548000000206D0052903D0022907D1012200E03D
:10549000032211461A461CF021FD2246104610BD7B
:1054A0000139C9B2022984BF0020704780B54FEA94
:1054B000C10C40F20241C0F2050121FA0CF1C9B25F
:1054C000FFF742F880BD00002DE9F04F89B04FF0A2
:1054D000000801244FF480760827CDE9068804E00F
:1054E0006400013F06F1040610D0B5B2284636F03C
:1054F00097FC0028F4D0204636F0BCFC0028EFD002
:10550000284636F04DFC48EA0408E9E74FF4BE703F
:1055100036F086FC40B14FF4BE7036F041FC06A870
:1055200048F0004836F024FC5FEA08601CD00127F0
:10553000002404E00134082C4FEA470714D017EA8E
:10554000080FF7D0204636F075FC0546204636F0A9
:105550007BFC064620461CF0D1FB0028EAD0024620
:10556000284631469047E5E7B8F1FF3F02DD09B034
:10557000BDE8F08F002046F2CC78CDE904004FF072
:10558000FF30C2F200086C4606AD0DF108094FF07D
:10559000030ACDE9020002E00026002EE7D098F8C9
:1055A0005460FF2E12D006F03F073846494636F0C9
:1055B0009FF858B138461CF0CBFB1CF09FFBBAEBB0
:1055C000961F83461FD0BBF1000F1CD10026002E72
:1055D000E2D0204636F0CCFB002000BF54F820106B
:1055E00055F82020914203D101300228F6D1D3E7AB
:1055F000DDE90010CDE90610DDE90410CDE9021067
:10560000002ECCD1B3E74FEA961ABAF1030F03D1BB
:10561000384604A936F076F8384636F00DFB0646D3
:105620003846294636F064F8B11EB1FA81F14909CD
:10563000F21E0028B2FA82F208BF510901290ED1E8
:10564000BAF1030F0DD102213846022E08BF032103
:1056500036F0CAF90126BBF1000F06D108E000269A
:1056600006E00026BBF1000F02D038465146D8476D
:105670004FF0030A002EACD18EE700004EF6045026
:10568000CEF200000068102101EA106070470000AF
:1056900043F63C62C2F20002C2E904017047000016
:1056A00070B582B039B18878012835D1084620F02C
:1056B00025FC02B070BDC0072ED043F63C64C2F298
:1056C00000040DF10701204608F0B4FC20B30646A3
:1056D0000DF1070509E000BF304608F0C1FC204687
:1056E000294608F0A7FC0646B0B19DF8070004283B
:1056F0000AD1304621F0BAFB607E0028ECD030465B
:1057000020F0D4FDE8E700BF304620F0F9FB002888
:10571000E5D021698847E2E702B070BD80B543F665
:105720007460C2F200000021C0E919116FF01B0182
:105730004FF6FF7243181C3138299A85FAD11B2184
:10574000A0F8701040F20511A0F874100021C0F804
:10575000901020F0F1FC80BDB0B50C46054640F23B
:105760000640032120F074FB002808BFB0BD290AC1
:10577000C5700171447120F09BFBB0BD43F63C61E4
:10578000C2F200018860704743F67460C2F2000004
:105790005C30704743F67460C2F20000B0F87200EB
:1057A0007047000043F67460C2F20000C06F70479B
:1057B00043F67460C2F20000B0F882007047000047
:1057C00043F67460C2F20000B0F870007047000049
:1057D00043F67460C2F2000090F884007047000045
:1057E00080B5FFF75DFF80BD80B543F63C61C2F236
:1057F000000108760020C1E90000FFF78FFF80BD9F
:105800002DE9F0418846074642F2270027211C4631
:10581000164620F01DFB002808BFBDE8F0810546B4
:1058200004304146EF70FEF78DFD30687168F26814
:10583000B368C5F81620C5F81230C5F80E10C5F8C3
:105840000A0020686168A268E368C5F81A00284663
:10585000C5F81E10C5F82220C5F8263020F028FB18
:10586000BDE8F08180B542F23D00002120F0F0FA61
:10587000002818BF20F01CFB80BD000080B542F25C
:105880002900002120F0E4FA002818BF20F010FBC6
:1058900080BD0000B0B50C46054642F213000E2153
:1058A00020F0D6FA002808BFB0BDA0F80350217838
:1058B000417161788171A178C171E17801722179BA
:1058C000417261798172A179C172E1790173217AA2
:1058D0004173617A8173A17AC173E17A017420F016
:1058E000E7FAB0BD80B542F20E00002120F0B0FA18
:1058F000002818BF20F0DCFA80BD00002DE9F04739
:105900000F46054642F20D0019219846914620F0B7
:105910009FFA002808BFBDE8F0870446C570280A32
:10592000DDE9081A2071380A0A9EA07104F1090005
:10593000677184F8079084F80880FEF703FD84F807
:105940000FA03078207470786074B078A074F0780C
:10595000E0743079207570796075B079A075F07950
:10596000E075307A2076707A6076B07AA076F07A38
:10597000E076204620F09CFABDE8F087B0B50C46F2
:10598000054642F21700202120F062FA002808BFE5
:10599000B0BD29686A68EB68AD68C0F80F30C0F820
:1059A0000B50C0F80720C0F8031021686268A36894
:1059B000E568C0F81310C0F81720C0F81B30C0F815
:1059C0001F5020F075FAB0BD2DE9F0470746007A68
:1059D000144688460026002120FA01F2D20718BF9B
:1059E0000136062904D8F2B2042A01F10101F3D3E9
:1059F0005FFA86F94FEA091000F10A0142F243000A
:105A000020F026FA002808BFBDE8F08782463878E3
:105A10008AF8030078788AF80400B8788AF80500D4
:105A200079680AF10600FEF78DFC387A31068AF8AB
:105A30000C0034D04FEA490151FA86F1AAF1030073
:105A40004FEA810CA21DA8F1020300279E78E519F8
:105A500000F8106FDE78467013F8046F86705E7879
:105A6000C670E65D06716E784671AE788671EE7826
:105A7000C671D61916F8021C017216F8011C417283
:105A8000D15D0C3781727178BC45C172297A01737E
:105A9000697A4173A97A8173E97AC173D6D1504684
:105AA00020F006FABDE8F087F0B581B00E46074653
:105AB00042F2420006211C46154620F0C9F948B1C1
:105AC000290A8171210AC77006714571C47101727A
:105AD00020F0EEF901B0F0BD70B50C46064642F27A
